:100000000C9464000C948C000C948C000C948C0068
:100010000C948C000C948C000C948C000C948C0030
:100020000C948C000C948C000C948C000C948C0020
:100030000C948C000C948C000C948C000C948C0010
:100040000C9479030C948C000C94EC040C943A05F9
:100050000C948C000C948C000C948C000C948C00F0
:100060000C948C000C948C000000000024002700ED
:100070002A0000000000250028002B0000000000DE
:1000800023002600290004040404040404040202DA
:100090000202020203030303030301020408102007
:1000A0004080010204081020010204081020000012
:1000B0000007000201000003040600000000000029
:1000C0000000CE00A606C70011241FBECFEFD8E067
:1000D000DEBFCDBF11E0A0E0B1E0E0E4F7E102C097
:1000E00005900D92A033B107D9F712E0A0E3B1E07B
:1000F00001C01D92A530B107E1F710E0C6ECD0E0D9
:1001000004C02297FE010E948F0BC23CD107C9F7A1
:100110000E94FC060C94930B0C940000FB01DC0184
:1001200002C001900D9241505040D8F70895FB0154
:10013000DC0101900D920020E1F70895CF92EF923B
:100140000F9381309105B1F46F5F7F4FE1F480E34D
:1001500091E067E046E025E004E053E0E52E32E080
:10016000C32E0E94400385E491E060E071E00E94AC
:10017000FD0809C0892B39F46F5F7F4F21F485E4B6
:1001800091E00E9430090F91EF90CF90089580E0A8
:1001900090E06FEF7FEF0E949E00089581E090E075
:1001A0006FEF7FEF0E949E0008950F931F9301E071
:1001B0000EC08EED91E00E942D06182F85E491E08F
:1001C000612F0E94B7081D3011F400934C018EED91
:1001D00091E00E94FC05181619065CF31F910F911F
:1001E000089580914C01882309F464C085E491E06E
:1001F00060E070E00E943F08FC0180818A3021F1BC
:1002000080E391E060E040E00E94530280E391E0EF
:1002100061E071E00E943C0885E491E060E070E0FC
:100220000E943F08FC0180E391E060810E94350755
:1002300085E491E061E070E00E943F08FC0180E30A
:1002400091E060810E94350785E491E060E070E014
:100250000E943F08FC0180818A3021F580E391E013
:1002600060E040E00E94530280E391E061E071E0D1
:100270000E943C0885E491E061E070E00E943F0844
:10028000FC0180E391E060810E94350785E491E004
:1002900062E070E00E943F08FC0180E391E0608131
:1002A0000E94350785E491E060E071E00E94170943
:1002B00010924C01809107010E949904892B29F426
:1002C0008EED91E068E070E004C08EED91E069E0B1
:1002D00070E04AE050E00E941D08089580910701F7
:1002E00062E00E94060480E391E060E142E020E0E9
:1002F0000E948A028EED91E040E855E260E070E0F5
:100300000E94750585E491E068EC70E00E946E083B
:1003100008950F931F938C01FC01868160E00E9479
:10032000450481E090E00E94C103F801868161E00C
:100330000E94450481E090E00E94C103F80186819B
:1003400060E00E94450484E690E00E94C1031F9192
:100350000F910895CF92DF92EF92FF920F931F9328
:10036000CF93DF93D82EC92E282F392FC9018C01A6
:10037000C0E0D0E0E62EFF24F801878161E00E9412
:100380000604B7010C2E02C0759567950A94E2F732
:100390006170F80187810E94450421960F5F1F4F0D
:1003A000C830D10549F78D2D9C2D0E948901DF9120
:1003B000CF911F910F91FF90EF90DF90CF90089514
:1003C000CF92DF92EF92FF920F931F93CF93DF9321
:1003D000D82EC92E282F392FC9018C01C0E0D0E0BA
:1003E000E62EFF24F801878161E00E940604B70130
:1003F0000C2E02C0759567950A94E2F76170F801BA
:1004000087810E94450421960F5F1F4FC430D1059C
:1004100049F78D2D9C2D0E948901DF91CF911F916D
:100420000F91FF90EF90DF90CF9008951F93CF939F
:10043000DF93EC01162F8C81642F0E9445048D817F
:100440008F3F19F060E00E9445048F8584FF05C04E
:10045000CE01612F0E94AA010EC0612F70E084E0DE
:10046000759567958A95E1F7CE010E94E001CE016E
:10047000612F0E94E001DF91CF911F91089541E02B
:100480000E94160281E090E0089540E00E9416026A
:100490000895FC016089862F8460808B6C60CF0199
:1004A0000E9445020895DF93CF93CDB7DEB728971A
:1004B0000FB6F894DEBF0FBECDBF9C01FE01319692
:1004C000A7E1B1E088E00D9001928150E1F7F901D8
:1004D0008389481710F0482F4150E42FF0E0EE0FC9
:1004E000FF1FEC0FFD1F8181680F6068C9010E942A
:1004F000450228960FB6F894DEBF0FBECDBFCF9150
:10050000DF91089561E00E94450280ED97E00E942E
:10051000C1030895CF93DF93EC01423018F08F852B
:1005200088608F874B8B1C8A222329F0413019F475
:100530008F8584608F8780E593EC0E94C1038C8156
:1005400060E00E9445048E8160E00E9445048D8138
:100550008F3F19F060E00E9445046F8564FD1DC067
:10056000CE0163E00E94E00184E991E10E94C103B1
:10057000CE0163E00E94E00184E991E10E94C103A1
:10058000CE0163E00E94E00186E990E00E94C10391
:10059000CE0162E00E94E00116C06062CE010E94BE
:1005A000450284E991E10E94C1036F856062CE013A
:1005B0000E94450286E990E00E94C1036F85606257
:1005C000CE010E9445026F856062CE010E94450205
:1005D00084E0888BCE010E944902CE010E948202F3
:1005E00082E0898BCE0166E00E944502DF91CF91C7
:1005F00008956F927F928F92AF92CF92EF920F9366
:100600001F93DF93CF93CDB7DEB73C01162F842F16
:10061000F301448325830683E782C086A186828610
:100620009D8593879E8594879F85958798899687D2
:1006300061E00E940604F30185818F3F19F061E0BB
:100640000E940604F301868161E00E9406041123E2
:1006500019F0F301178603C080E1F3018787C30116
:1006600060E141E020E00E948A02CF91DF911F917A
:100670000F91EF90CF90AF908F907F906F900895F3
:100680008F92AF92CF92EF920F931F93CF93DF93FE
:10069000DC01362F542F722F102FAE2C8C2C13967A
:1006A0001C921E92129783E191E011969C938E9377
:1006B00000D000D0EDB7FEB73196CDB7DEB71982C6
:1006C000118212821382CD0161E0432F2FEF052F9B
:1006D000E72EC12E0E94F9020F900F900F900F90FD
:1006E000DF91CF911F910F91EF90CF90AF908F90AE
:1006F00008951F920F920FB60F9211242F933F93DC
:100700008F939F93AF93BF9380915101909152012A
:10071000A0915301B0915401309155010196A11D52
:10072000B11D232F2D5F2D3720F02D570196A11DD0
:10073000B11D209355018093510190935201A093D4
:100740005301B093540180914D0190914E01A091BD
:100750004F01B09150010196A11DB11D80934D0133
:1007600090934E01A0934F01B0935001BF91AF9170
:100770009F918F913F912F910F900FBE0F901F90DF
:100780001895019739F0880F991F880F991F0297C4
:100790000197F1F70895789484B5826084BD84B59B
:1007A000816084BD85B5826085BD85B5816085BD6C
:1007B000EEE6F0E0808181608083E1E8F0E0108285
:1007C000808182608083808181608083E0E8F0E0C6
:1007D000808181608083E1EBF0E0808184608083B0
:1007E000E0EBF0E0808181608083EAE7F0E08081E7
:1007F0008460808380818260808380818160808347
:100800008081806880831092C1000895CF93DF9328
:10081000482F50E0CA0186569F4FFC0134914A5739
:100820005F4FFA018491882369F190E0880F991F46
:10083000FC01E859FF4FA591B491FC01EE58FF4F20
:10084000C591D491662351F42FB7F8948C91932FCE
:10085000909589238C93888189230BC0623061F441
:100860002FB7F8948C91932F909589238C9388813E
:10087000832B88832FBF06C09FB7F8948C91832B5E
:100880008C939FBFDF91CF910895482F50E0CA010C
:1008900082559F4FFC012491CA0186569F4FFC014F
:1008A00094914A575F4FFA013491332309F440C0C1
:1008B000222351F1233071F0243028F42130A1F0AB
:1008C000223011F514C02630B1F02730C1F02430A9
:1008D000D9F404C0809180008F7703C0809180009C
:1008E0008F7D8093800010C084B58F7702C084B55F
:1008F0008F7D84BD09C08091B0008F7703C0809147
:10090000B0008F7D8093B000E32FF0E0EE0FFF1F6B
:10091000EE58FF4FA591B4912FB7F894662321F4B8
:100920008C919095892302C08C91892B8C932FBF39
:100930000895682F70E0CB0182559F4FFC012491F0
:10094000CB0186569F4FFC0144916A577F4FFB01B4
:100950009491992319F420E030E03CC0222351F116
:10096000233071F0243028F42130A1F0223011F529
:1009700014C02630B1F02730C1F02430D9F404C0BF
:10098000809180008F7703C0809180008F7D80935D
:10099000800010C084B58F7702C084B58F7D84BD80
:1009A00009C08091B0008F7703C08091B0008F7D27
:1009B0008093B000892F90E0880F991F84589F4F33
:1009C000FC01A591B4918C9120E030E0842311F0DA
:1009D00021E030E0C90108951F920F920FB60F92E7
:1009E00011242F933F934F938F939F93EF93FF93F4
:1009F0008091C00082FD1DC04091C60020919601EB
:100A0000309197012F5F3F4F2F7330708091980185
:100A1000909199012817390771F0E0919601F091B2
:100A20009701EA5AFE4F4083309397012093960135
:100A300002C08091C600FF91EF919F918F914F91DD
:100A40003F912F910F900FBE0F901F901895E0913E
:100A5000EA01F091EB01E05CFF4F819191912081DF
:100A60003181821B930B8F739070892B11F00E9440
:100A7000D50008951F920F920FB60F9211242F9355
:100A80003F938F939F93EF93FF932091DA013091DF
:100A9000DB018091DC019091DD012817390731F4E9
:100AA0008091C1008F7D8093C10014C0E091DC0172
:100AB000F091DD01E656FE4F20818091DC0190919E
:100AC000DD0101968F7390709093DD018093DC01BE
:100AD0002093C600FF91EF919F918F913F912F91AD
:100AE0000F900FBE0F901F901895AF92BF92DF929C
:100AF000EF92FF920F931F93CF93DF93EC017A0154
:100B00008B01DD24403081EE580780E0680780E0EB
:100B1000780711F0DD24D39491E0A92EB12CEC8953
:100B2000FD89DD2069F0C50108A002C0880F991F6A
:100B30000A94E2F7808360E079E08DE390E005C0FD
:100B4000108260E874E88EE190E0A80197010E94AD
:100B50006B0B21503040404050405695479537959B
:100B6000279580E12030380720F0DD2011F0DD24CA
:100B7000D6CFE889F9893083EA89FB89208319A2D5
:100B8000EE89FF89408121E030E0C9010C8C02C070
:100B9000880F991F0A94E2F7482B4083EE89FF895A
:100BA0004081C9010D8C02C0880F991F0A94E2F799
:100BB000482B4083EE89FF894081C9010E8C02C019
:100BC000880F991F0A94E2F7482B4083EE89FF892A
:100BD00080810F8C02C0220F331F0A94E2F7209508
:100BE00028232083DF91CF911F910F91FF90EF90E9
:100BF000DF90BF90AF900895DC011C96ED91FC91C1
:100C00001D97E05CFF4F2191319180819181281BDC
:100C1000390B2F733070C9010895DC011C96ED91DA
:100C2000FC911D97E05CFF4F20813181E054F04042
:100C3000DF01AE5BBF4F8D919C911197281739074B
:100C400019F42FEF3FEF07C08D919C91E80FF91F2A
:100C50008081282F30E0C9010895DC011C96ED91B8
:100C6000FC911D97E05CFF4F20813181E054F04002
:100C7000DF01AE5BBF4F8D919C911197281739070B
:100C800019F42FEF3FEF10C08D919C911197E80F51
:100C9000F91F20818D919C91119701968F7390700F
:100CA00011969C938E9330E0C9010895DC019196D2
:100CB0008C919197882339F05496ED91FC9155973A
:100CC000808186FFF9CF91961C920895CF93DF9390
:100CD000EC01EE85FF85E05CFF4F20813181E0541F
:100CE000F0402F5F3F4F2F733070DF01AE5BBF4F7F
:100CF0008D919C91119728173907D1F3E05CFF4F34
:100D000080819181E054F040E80FF91F6083EE8507
:100D1000FF85E05CFF4F31832083EE89FF892081CE
:100D200081E090E00F8C02C0880F991F0A94E2F7CF
:100D3000282B208381E089A3EC89FD898081806450
:100D4000808381E090E0DF91CF9108951092E101DE
:100D50001092E00188EE93E0A0E0B0E08093E20121
:100D60009093E301A093E401B093E50183E291E065
:100D70009093DF018093DE0186E591E09093EB0193
:100D80008093EA018AE991E09093ED018093EC0170
:100D900085EC90E09093EF018093EE0184EC90E07D
:100DA0009093F1018093F00180EC90E09093F30137
:100DB0008093F20181EC90E09093F5018093F4012F
:100DC00082EC90E09093F7018093F60186EC90E03E
:100DD0009093F9018093F80184E08093FA0183E015
:100DE0008093FB0187E08093FC0185E08093FD0107
:100DF00081E08093FE010895CF93DF930E94CB039F
:100E00000E946E01C7E2D5E00E94F1002097E1F355
:100E10000E942705F9CFCF92DF92EF92FF920F93B6
:100E20001F93CF93DF937C016B018A01C0E0D0E078
:100E30000FC0D6016D916D01D701ED91FC9101902C
:100E4000F081E02DC7010995C80FD91F015010404E
:100E50000115110571F7CE01DF91CF911F910F910F
:100E6000FF90EF90DF90CF900895DC01ED91FC9121
:100E70000190F081E02D09950895EF92FF920F9374
:100E80001F938C01DC01ED91FC910190F081E02D2C
:100E90006DE009957C01D801ED91FC910190F08104
:100EA000E02DC8016AE009959C012E0D3F1DC90186
:100EB0001F910F91FF90EF900895CF93DF93EC0176
:100EC0006115710519F420E030E00FC0DB010D90D1
:100ED0000020E9F71197A61BB70BE881F981028082
:100EE000F381E02DAD0109959C01C901DF91CF91FE
:100EF00008954F925F927F928F929F92AF92BF928E
:100F0000CF92DF92EF92FF920F931F93DF93CF93D5
:100F1000CDB7DEB7A1970FB6F894DEBF0FBECDBF39
:100F20002C01742ECB01223008F42AE019A231E200
:100F3000C32ED12CCC0EDD1E822E9924AA24BB24D4
:100F4000672D752FA50194010E946B0B79018A0111
:100F5000C801B701A50194010E944C0B472D461B07
:100F60000894C108D1084A3014F4405D01C0495CBE
:100F7000F6014083E114F1040105110521F07E2CF6
:100F80005F2DC801DDCFC201B6010E945D07A196A9
:100F90000FB6F894DEBF0FBECDBFCF91DF911F918A
:100FA0000F91FF90EF90DF90CF90BF90AF909F9008
:100FB0008F907F905F904F900895CF92DF92EF9245
:100FC000FF920F931F93CF93DF93EC016A017B0194
:100FD0002115310541F4E881F9810190F081E02D7E
:100FE000642F09951FC02A303105D1F477FF17C04F
:100FF000E881F9810190F081E02D6DE209958C0185
:1010000044275527BA014C195D096E097F09CE01A5
:101010002AE00E9479079801280F391F04C02AE0AE
:101020000E9479079C01C901DF91CF911F910F9117
:10103000FF90EF90DF90CF900895CF92DF92EF92E4
:10104000FF920F931F936C017B019A010027F7FC1D
:101050000095102FB801A7010E94DD078C01C60181
:101060000E943D07080F191FC8011F910F91FF90A3
:10107000EF90DF90CF9008950E945D070895FC01E6
:101080009B01848195816817790728F460817181BB
:101090006115710529F41092000260E072E002C04F
:1010A000620F731FCB0108950F931F93CF93DF93AC
:1010B000EC018B016F5F7F4F888199810E946B0AE1
:1010C000009711F480E005C0998388831B830A830D
:1010D00081E0DF91CF911F910F910895CF93DF931E
:1010E000EC0188819981892B29F08A819B8186175F
:1010F000970760F4CE010E945408882341F08C8148
:101100009D81892B19F4E881F981108281E0DF91BA
:10111000CF910895EF92FF920F931F93CF93DF9398
:10112000EC017B016C817D81E114F104C1F041157A
:10113000510599F08A01060F171FB8010E946E0829
:10114000882369F0888199812C813D81820F931FCA
:10115000B7010E9497001D830C8381E001C080E0ED
:10116000DF91CF911F910F91FF90EF900895DF9342
:10117000CF9300D0CDB7DEB769831A82BE016F5F0F
:101180007F4F41E050E00E948A080F900F90CF916E
:10119000DF910895CF93DF93EC01888199810097C7
:1011A00011F00E94D309198218821D821C821B82B1
:1011B0001A82DF91CF910895EF92FF920F931F93C0
:1011C000CF93DF93EC017B018A01BA010E946E0884
:1011D000882321F4CE010E94CA0807C01D830C8316
:1011E00088819981B7010E949700CE01DF91CF914C
:1011F0001F910F91FF90EF900895CF93DF93EC0133
:10120000198218821B821A821D821C821E8261151D
:10121000710551F0DB010D900020E9F71197A61B35
:10122000B70BAD010E94DC08DF91CF9108950F93B9
:101230001F93182F092F6115710559F0DB010D90CF
:101240000020E9F71197A61BB70BAD010E94DC083F
:1012500002C00E94CA08812F902F1F910F910895FC
:10126000FC01808191810E94D30908950F931F93FF
:10127000CF93DF93BC018230910510F462E070E0FF
:10128000E0910302F091040240E050E0A0E0B0E001
:1012900024C08081918186179707D0F08617970721
:1012A00071F482819381109729F013969C938E9309
:1012B00012972CC0909304028093030227C041151B
:1012C000510519F08417950718F48D01AC01EF0151
:1012D000DF01828193819C01F9013097D1F641159C
:1012E0005105F9F0CA01861B970B8430910580F4F3
:1012F0008A819B810115110521F0F8019383828376
:1013000004C09093040280930302FE01329645C00C
:10131000FE01E80FF91F6193719302979983888307
:101320003CC08091010290910202892B41F480918E
:101330000B0190910C019093020280930102409165
:101340000D0150910E014115510541F44DB75EB7A5
:101350008091090190910A01481B590B20910102CB
:101360003091020224173507B0F4CA01821B930B97
:101370008617970780F0AB014E5F5F4F8417950784
:1013800050F0420F531F5093020240930102F901A3
:101390006193719302C0E0E0F0E0CF01DF91CF9163
:1013A0001F910F910895CF93DF939C01009709F44B
:1013B0008FC0EC0122971B821A8260910302709108
:1013C00004026115710581F488819981820F931F50
:1013D00020910102309102022817390739F5D09384
:1013E0000202C093010274C0DB0140E050E0AC1780
:1013F000BD0708F1BB83AA83FE0121913191E20F61
:10140000F31FAE17BF0779F48D919C911197280FA8
:10141000391F2E5F3F4F3983288312968D919C91FF
:1014200013979B838A834115510571F4D09304026D
:10143000C09303024DC012968D919C911397AD01FC
:10144000009711F0DC01D3CFDA011396DC93CE9331
:101450001297FA0121913191E20FF31FCE17DF07A6
:1014600069F488819981280F391F2E5F3F4FFA0157
:10147000318320838A819B8193838283E0E0F0E043
:10148000DB0112968D919C911397009719F0BC0186
:10149000FD01F6CFAB014E5F5F4FDB018D919C915B
:1014A000840F951F209101023091020228173907FD
:1014B00079F4309729F4109204021092030202C0CA
:1014C0001382128242505040509302024093010214
:1014D000DF91CF9108956F927F928F929F92AF92FA
:1014E000BF92CF92DF92EF92FF920F931F93CF9311
:1014F000DF938C01009729F4CB010E9436098C01FF
:10150000BBC08EEFE82E8FEFF82EE00EF11E4801E3
:10151000860E971E8E149F0408F4ACC0D7014D911F
:101520005C91119746175707B8F04530510508F4FC
:10153000A3C0CA0104978617970708F49DC04250BC
:101540005040461B570BF401419351936D937C938C
:10155000CF010E94D30990C05B01A41AB50A3801DB
:10156000640E751EA0910302B0910402E0E0F0E069
:10157000CC24DD2447C0A615B705A9F5CD91DC9193
:101580001197CE0102968A159B0568F1CE018A1942
:101590009B09029612962C91129713963C910597EF
:1015A00058F0F40122833383CA19DB09D183C08345
:1015B000D7016D937C9309C04E5F5F4F4C0F5D1F49
:1015C000F70151834083C901FC01C114D10431F0FA
:1015D000D6011396FC93EE9312974EC0F09304023B
:1015E000E093030249C08D919C911197E817F90788
:1015F00008F4FC016D0112968C91129713969C9140
:101600009C01D901109709F0B6CF80910102909109
:10161000020286159705E9F4E617F707D0F4209142
:101620000D0130910E012115310541F42DB73EB762
:101630008091090190910A01281B390B82169306AB
:10164000C8F49092020280920102F70171836083D4
:1016500013C0CB010E943609EC01009759F0D70165
:101660004D915C91B8010E948E00C8010E94D3097F
:101670008E0102C000E010E0C801DF91CF911F9100
:101680000F91FF90EF90DF90CF90BF90AF909F9021
:101690008F907F906F900895629FD001739FF001AB
:1016A000829FE00DF11D649FE00DF11D929FF00DF2
:1016B000839FF00D749FF00D659FF00D9927729F29
:1016C000B00DE11DF91F639FB00DE11DF91FBD01B4
:1016D000CF0111240895A1E21A2EAA1BBB1BFD0104
:1016E0000DC0AA1FBB1FEE1FFF1FA217B307E40701
:1016F000F50720F0A21BB30BE40BF50B661F771F59
:10170000881F991F1A9469F7609570958095909538
:101710009B01AC01BD01CF010895EE0FFF1F0590A5
:10172000F491E02D099410E0C6ECD0E004C0FE0175
:101730000E948F0B2296C83CD107C9F7F894FFCFBF
:101740000054454D503A000A008000050200000098
:101750000000003F020B070000400014005400008E
:1017600000000066060B07FC052D060D0656060058
:00000001FF
