:100000000C9464000C948C000C948C000C948C0068
:100010000C948C000C948C000C948C000C948C0030
:100020000C948C000C948C000C948C000C948C0020
:100030000C948C000C948C000C948C000C948C0010
:100040000C94A9030C948C000C9444050C94920518
:100050000C948C000C948C000C948C000C948C00F0
:100060000C948C000C948C000000000024002700ED
:100070002A0000000000250028002B0000000000DE
:1000800023002600290004040404040404040202DA
:100090000202020203030303030301020408102007
:1000A0004080010204081020010204081020000012
:1000B0000007000201000003040600000000000029
:1000C0000000CE00FE06C70011241FBECFEFD8E00F
:1000D000DEBFCDBF11E0A0E0B1E0E4E5F8E102C091
:1000E00005900D92AE34B107D9F712E0AEE4B1E05D
:1000F00001C01D92A332B107E1F710E0C6ECD0E0D9
:1001000004C02297FE010E94190CC23CD107C9F716
:100110000E9454070C941D0C0C940000FB01DC01A0
:1001200002C001900D9241505040D8F70895FB0154
:10013000DC0101900D920020E1F70895CF92EF923B
:100140000F9381309105B1F46F5F7F4FE1F48EE43E
:1001500091E067E046E025E004E053E0E52E32E080
:10016000C32E0E94700383E691E060E071E00E947C
:10017000600909C0892B39F46F5F7F4F21F483E652
:1001800091E00E9493090F91EF90CF90089580E045
:1001900090E06FEF7FEF0E949E00089581E090E075
:1001A0006FEF7FEF0E949E0008950F931F9301E071
:1001B0000EC08CEF91E00E948506182F83E691E037
:1001C000612F0E941A091D3011F400936A018CEF0F
:1001D00091E00E945406181619065CF31F910F91C6
:1001E00008950F931F938EE00E948F0462E070E0E9
:1001F0000E94CE0B162F072F8EE491E060E040E0C6
:100200000E9483028EE491E061E071E00E949F0809
:100210008EE491E0612F702F4AE050E00E946D085B
:100220008CEF91E0612F702F4AE050E00E9480082F
:1002300080916A01882309F456C083E691E060E06A
:1002400070E00E94A208FC0180818A30E9F083E618
:1002500091E060E070E00E94A208FC018081883398
:1002600021F48091250161E00DC083E691E060E01A
:1002700070E00E94A208FC018081893329F48091FA
:10028000250160E00E94F00483E691E060E070E008
:100290000E94A208FC0180818A30E9F483E691E0A3
:1002A00061E070E00E94A208FC018081883321F4A3
:1002B0008091250161E00DC083E691E061E070E08E
:1002C0000E94A208FC018081893329F480912501D4
:1002D00060E00E94F00483E691E060E071E00E943B
:1002E0007A0910926A0162E370E080E090E00E9477
:1002F000F1031F910F9108950F931F938091250192
:1003000061E00E94B1048CEF91E040E855E260E0CA
:1003100070E00E94CD0583E691E068EC70E00E94F9
:10032000D1080EE411E0C80160E142E020E00E9443
:10033000BA02C80160E040E00E948302C80168E0A0
:1003400071E00E949F08C80160E041E00E948302C2
:10035000C80168E171E00E949F0868EC70E080E0ED
:1003600090E00E94F103C8010E94B2021F910F9118
:1003700008950F931F938C01FC01868160E00E9419
:10038000F00481E090E00E944A04F801868161E077
:100390000E94F00481E090E00E944A04F801868106
:1003A00060E00E94F00484E690E00E944A041F91FD
:1003B0000F910895CF92DF92EF92FF920F931F93C8
:1003C000CF93DF93D82EC92E282F392FC9018C0146
:1003D000C0E0D0E0E62EFF24F801878161E00E94B2
:1003E000B104B7010C2E02C0759567950A94E2F727
:1003F0006170F80187810E94F00421960F5F1F4F02
:10040000C830D10549F78D2D9C2D0E94B901DF918F
:10041000CF911F910F91FF90EF90DF90CF900895B3
:10042000CF92DF92EF92FF920F931F93CF93DF93C0
:10043000D82EC92E282F392FC9018C01C0E0D0E059
:10044000E62EFF24F801878161E00E94B104B70124
:100450000C2E02C0759567950A94E2F76170F80159
:1004600087810E94F00421960F5F1F4FC430D10591
:1004700049F78D2D9C2D0E94B901DF91CF911F91DD
:100480000F91FF90EF90DF90CF9008951F93CF933F
:10049000DF93EC01162F8C81642F0E94F0048D8174
:1004A0008F3F19F060E00E94F0048F8584FF05C043
:1004B000CE01612F0E94DA010EC0612F70E084E04E
:1004C000759567958A95E1F7CE010E941002CE01DD
:1004D000612F0E941002DF91CF911F91089541E09A
:1004E0000E94460281E090E0089540E00E944602AA
:1004F0000895FC016089862F8460808B6C60CF0139
:100500000E9475020895DF93CF93CDB7DEB7289789
:100510000FB6F894DEBF0FBECDBF9C01FE01319631
:10052000A6E3B1E088E00D9001928150E1F7F90176
:100530008389481710F0482F4150E42FF0E0EE0F68
:10054000FF1FEC0FFD1F8181680F6068C9010E94C9
:10055000750228960FB6F894DEBF0FBECDBFCF91BF
:10056000DF91089561E00E94750280ED97E00E949E
:100570004A040895CF93DF93EC01423018F08F8541
:1005800088608F874B8B1C8A222329F0413019F415
:100590008F8584608F8780E593EC0E944A048C816C
:1005A00060E00E94F0048E8160E00E94F0048D8182
:1005B0008F3F19F060E00E94F0046F8564FD1DC05C
:1005C000CE0163E00E94100284E991E10E944A0496
:1005D000CE0163E00E94100284E991E10E944A0486
:1005E000CE0163E00E94100286E990E00E944A0476
:1005F000CE0162E00E94100216C06062CE010E942D
:10060000750284E991E10E944A046F856062CE011F
:100610000E94750286E990E00E944A046F8560623C
:10062000CE010E9475026F856062CE010E94750244
:1006300084E0888BCE010E947902CE010E94B20232
:1006400082E0898BCE0166E00E947502DF91CF9136
:1006500008956F927F928F92AF92CF92EF920F9305
:100660001F93DF93CF93CDB7DEB73C01162F842FB6
:10067000F301448325830683E782C086A1868286B0
:100680009D8593879E8594879F8595879889968772
:1006900061E00E94B104F30185818F3F19F061E0B0
:1006A0000E94B104F301868161E00E94B10411232C
:1006B00019F0F301178603C080E1F3018787C301B6
:1006C00060E141E020E00E94BA02CF91DF911F91EA
:1006D0000F91EF90CF90AF908F907F906F90089593
:1006E0008F92AF92CF92EF920F931F93CF93DF939E
:1006F000DC01362F542F722F102FAE2C8C2C13961A
:100700001C921E92129782E391E011969C938E9315
:1007100000D000D0EDB7FEB73196CDB7DEB7198265
:10072000118212821382CD0161E0432F2FEF052F3A
:10073000E72EC12E0E9429030F900F900F900F906B
:10074000DF91CF911F910F91EF90CF90AF908F904D
:1007500008951F920F920FB60F9211242F933F937B
:100760008F939F93AF93BF9380916F01909170018E
:10077000A0917101B0917201309173010196A11D98
:10078000B11D232F2D5F2D3720F02D570196A11D70
:10079000B11D2093730180936F0190937001A0931A
:1007A0007101B093720180916B0190916C01A091E5
:1007B0006D01B0916E010196A11DB11D80936B0179
:1007C00090936C01A0936D01B0936E01BF91AF91B6
:1007D0009F918F913F912F910F900FBE0F901F907F
:1007E00018959B01AC017FB7F89480916B019091B3
:1007F0006C01A0916D01B0916E0166B5A89B05C01A
:100800006F3F19F00196A11DB11D7FBFBA2FA92F0F
:10081000982F8827860F911DA11DB11D62E0880FBA
:10082000991FAA1FBB1F6A95D1F7BC012DC0FFB746
:10083000F89480916B0190916C01A0916D01B09141
:100840006E01E6B5A89B05C0EF3F19F00196A11D0A
:10085000B11DFFBFBA2FA92F982F88278E0F911D8A
:10086000A11DB11DE2E0880F991FAA1FBB1FEA95C9
:10087000D1F7861B970B885E9340C8F22150304019
:100880004040504068517C4F2115310541055105CC
:1008900071F60895019739F0880F991F880F991FF5
:1008A00002970197F1F70895789484B5826084BD2A
:1008B00084B5816084BD85B5826085BD85B5816064
:1008C00085BDEEE6F0E0808181608083E1E8F0E0C4
:1008D0001082808182608083808181608083E0E8F3
:1008E000F0E0808181608083E1EBF0E080818460D2
:1008F0008083E0EBF0E0808181608083EAE7F0E0D4
:100900008081846080838081826080838081816037
:1009100080838081806880831092C1000895982F21
:100920008E3008F09E509770809127018295880F35
:10093000880F807C892B80937C0080917A00806472
:1009400080937A0080917A0086FDFCCF2091780018
:1009500040917900942F80E030E0282B392BC90199
:100960000895CF93DF93482F50E0CA0186569F4FDA
:10097000FC0134914A575F4FFA018491882369F151
:1009800090E0880F991FFC01E859FF4FA591B491A1
:10099000FC01EE58FF4FC591D491662351F42FB757
:1009A000F8948C91932F909589238C938881892337
:1009B0000BC0623061F42FB7F8948C91932F90950F
:1009C00089238C938881832B88832FBF06C09FB790
:1009D000F8948C91832B8C939FBFDF91CF910895D6
:1009E000482F50E0CA0182559F4FFC012491CA0153
:1009F00086569F4FFC0194914A575F4FFA013491FC
:100A0000332309F440C0222351F1233071F0243004
:100A100028F42130A1F0223011F514C02630B1F0B5
:100A20002730C1F02430D9F404C0809180008F7742
:100A300003C0809180008F7D8093800010C084B5BA
:100A40008F7702C084B58F7D84BD09C08091B000CE
:100A50008F7703C08091B0008F7D8093B000E32F2B
:100A6000F0E0EE0FFF1FEE58FF4FA591B4912FB7A6
:100A7000F894662321F48C919095892302C08C917F
:100A8000892B8C932FBF08951F920F920FB60F9250
:100A900011242F933F934F938F939F93EF93FF9343
:100AA0008091C00082FD1DC04091C6002091B4011C
:100AB0003091B5012F5F3F4F2F7330708091B60199
:100AC0009091B7012817390771F0E091B401F091C6
:100AD000B501EC58FE4F40833093B5012093B4012B
:100AE00002C08091C600FF91EF919F918F914F912D
:100AF0003F912F910F900FBE0F901F901895E0918E
:100B00000802F0910902E05CFF4F819191912081F0
:100B10003181821B930B8F739070892B11F00E948F
:100B2000D50008951F920F920FB60F9211242F93A4
:100B30003F938F939F93EF93FF932091F801309110
:100B4000F9018091FA019091FB012817390731F4DE
:100B50008091C1008F7D8093C10014C0E091FA01A3
:100B6000F091FB01E854FE4F20818091FA019091B1
:100B7000FB0101968F7390709093FB018093FA01B3
:100B80002093C600FF91EF919F918F913F912F91FC
:100B90000F900FBE0F901F901895AF92BF92DF92EB
:100BA000EF92FF920F931F93CF93DF93EC017A01A3
:100BB0008B01DD24403081EE580780E0680780E03B
:100BC000780711F0DD24D39491E0A92EB12CEC89A3
:100BD000FD89DD2069F0C50108A002C0880F991FBA
:100BE0000A94E2F7808360E079E08DE390E005C04D
:100BF000108260E874E88EE190E0A80197010E94FD
:100C0000E10B215030404040504056954795379574
:100C1000279580E12030380720F0DD2011F0DD2419
:100C2000D6CFE889F9893083EA89FB89208319A224
:100C3000EE89FF89408121E030E0C9010C8C02C0BF
:100C4000880F991F0A94E2F7482B4083EE89FF89A9
:100C50004081C9010D8C02C0880F991F0A94E2F7E8
:100C6000482B4083EE89FF894081C9010E8C02C068
:100C7000880F991F0A94E2F7482B4083EE89FF8979
:100C800080810F8C02C0220F331F0A94E2F7209557
:100C900028232083DF91CF911F910F91FF90EF9038
:100CA000DF90BF90AF900895DC011C96ED91FC9110
:100CB0001D97E05CFF4F2191319180819181281B2C
:100CC000390B2F733070C9010895DC011C96ED912A
:100CD000FC911D97E05CFF4F20813181E054F04092
:100CE000DF01AE5BBF4F8D919C911197281739079B
:100CF00019F42FEF3FEF07C08D919C91E80FF91F7A
:100D00008081282F30E0C9010895DC011C96ED9107
:100D1000FC911D97E05CFF4F20813181E054F04051
:100D2000DF01AE5BBF4F8D919C911197281739075A
:100D300019F42FEF3FEF10C08D919C911197E80FA0
:100D4000F91F20818D919C91119701968F7390705E
:100D500011969C938E9330E0C9010895DC01919621
:100D60008C919197882339F05496ED91FC91559789
:100D7000808186FFF9CF91961C920895CF93DF93DF
:100D8000EC01EE85FF85E05CFF4F20813181E0546E
:100D9000F0402F5F3F4F2F733070DF01AE5BBF4FCE
:100DA0008D919C91119728173907D1F3E05CFF4F83
:100DB00080819181E054F040E80FF91F6083EE8557
:100DC000FF85E05CFF4F31832083EE89FF8920811E
:100DD00081E090E00F8C02C0880F991F0A94E2F71F
:100DE000282B208381E089A3EC89FD8980818064A0
:100DF000808381E090E0DF91CF9108951092FF0110
:100E00001092FE0188EE93E0A0E0B0E08093000233
:100E100090930102A0930202B093030282E491E056
:100E20009093FD018093FC0184E791E09093090287
:100E30008093080288EB91E090930B0280930A0262
:100E400085EC90E090930D0280930C0284EC90E08E
:100E500090930F0280930E0280EC90E09093110229
:100E60008093100281EC90E0909313028093120221
:100E700082EC90E0909315028093140286EC90E04F
:100E8000909317028093160284E08093180283E007
:100E90008093190287E080931A0285E080931B02F9
:100EA00081E080931C020895CF93DF930E94540445
:100EB0000E947C01CFE7D5E00E94F1002097E1F38A
:100EC0000E947F05F9CFCF92DF92EF92FF920F93AE
:100ED0001F93CF93DF937C016B018A01C0E0D0E0C8
:100EE0000FC0D6016D916D01D701ED91FC9101907C
:100EF000F081E02DC7010995C80FD91F015010409E
:100F00000115110571F7CE01DF91CF911F910F915E
:100F1000FF90EF90DF90CF900895EF92FF920F93A4
:100F20001F938C01DC01ED91FC910190F081E02D8B
:100F30006DE009957C01D801ED91FC910190F08163
:100F4000E02DC8016AE009959C012E0D3F1DC901E5
:100F50001F910F91FF90EF900895CF93DF93EC01D5
:100F60006115710519F420E030E00FC0DB010D9030
:100F70000020E9F71197A61BB70BE881F9810280E1
:100F8000F381E02DAD0109959C01C901DF91CF915D
:100F900008954F925F927F928F929F92AF92BF92ED
:100FA000CF92DF92EF92FF920F931F93DF93CF9335
:100FB000CDB7DEB7A1970FB6F894DEBF0FBECDBF99
:100FC0002C01742ECB01223008F42AE019A231E260
:100FD000C32ED12CCC0EDD1E822E9924AA24BB2434
:100FE000672D752FA50194010E94E10B79018A01FB
:100FF000C801B701A50194010E94AF0B472D461B04
:101000000894C108D1084A3014F4405D01C0495C1D
:10101000F6014083E114F1040105110521F07E2C55
:101020005F2DC801DDCFC201B6010E94AD07A196B8
:101030000FB6F894DEBF0FBECDBFCF91DF911F91E9
:101040000F91FF90EF90DF90CF90BF90AF909F9067
:101050008F907F905F904F900895CF92DF92EF92A4
:10106000FF920F931F93CF93DF93EC016A017B01F3
:101070002115310541F4E881F9810190F081E02DDD
:10108000642F09951FC02A303105D1F477FF17C0AE
:10109000E881F9810190F081E02D6DE209958C01E4
:1010A00044275527BA014C195D096E097F09CE0105
:1010B0002AE00E94C9079801280F391F04C02AE0BE
:1010C0000E94C9079C01C901DF91CF911F910F9127
:1010D000FF90EF90DF90CF900895EF92FF920F93E3
:1010E0001F937B019A010027F7FC0095102FB80190
:1010F000A7010E942D081F910F91FF90EF90089576
:10110000CF92DF92EF92FF920F931F936C017B01BE
:101110009A010027F7FC0095102FB801A7010E9443
:101120002D088C01C6010E948D07080F191FC801E8
:101130001F910F91FF90EF90DF90CF9008950E9444
:10114000AD070895FC019B0184819581681779079B
:1011500028F4608171816115710529F410921E02D5
:101160006EE172E002C0620F731FCB0108950F930E
:101170001F93CF93DF93EC018B016F5F7F4F8881CB
:1011800099810E94CE0A009711F480E005C09983EE
:1011900088831B830A8381E0DF91CF911F910F9198
:1011A0000895CF93DF93EC0188819981892B29F0F1
:1011B0008A819B818617970760F4CE010E94B70849
:1011C000882341F08C819D81892B19F4E881F98174
:1011D000108281E0DF91CF910895EF92FF920F93FB
:1011E0001F93CF93DF93EC017B016C817D81E11430
:1011F000F104C1F04115510599F08A01060F171F3E
:10120000B8010E94D108882369F0888199812C81D6
:101210003D81820F931FB7010E9497001D830C83AD
:1012200081E001C080E0DF91CF911F910F91FF908D
:10123000EF900895DF93CF9300D0CDB7DEB76983E9
:101240001A82BE016F5F7F4F41E050E00E94ED08BF
:101250000F900F90CF91DF910895CF93DF93EC0122
:1012600088819981009711F00E94360A19821882AC
:101270001D821C821B821A82DF91CF910895EF920A
:10128000FF920F931F93CF93DF93EC017B018A01B1
:10129000BA010E94D108882321F4CE010E942D09B1
:1012A00007C01D830C8388819981B7010E94970034
:1012B000CE01DF91CF911F910F91FF90EF90089594
:1012C000CF93DF93EC01198218821B821A821D8250
:1012D0001C821E826115710551F0DB010D9000200A
:1012E000E9F71197A61BB70BAD010E943F09DF91EB
:1012F000CF9108950F931F93182F092F6115710532
:1013000059F0DB010D900020E9F71197A61BB70BF0
:10131000AD010E943F0902C00E942D09812F902F2C
:101320001F910F910895FC01808191810E94360ADE
:1013300008950F931F93CF93DF93BC0182309105E3
:1013400010F462E070E0E0912102F091220240E0AE
:1013500050E0A0E0B0E024C080819181861797071B
:10136000D0F08617970771F482819381109729F046
:1013700013969C938E9312972CC090932202809385
:10138000210227C04115510519F08417950718F45B
:101390008D01AC01EF01DF01828193819C01F90194
:1013A0003097D1F641155105F9F0CA01861B970B0C
:1013B0008430910580F48A819B810115110521F00B
:1013C000F8019383828304C09093220280932102C8
:1013D000FE01329645C0FE01E80FF91F619371933B
:1013E0000297998388833CC080911F0290912002CC
:1013F000892B41F480912A0190912B019093200236
:1014000080931F0240912C0150912D0141155105EF
:1014100041F44DB75EB78091280190912901481B96
:10142000590B20911F023091200224173507B0F488
:10143000CA01821B930B8617970780F0AB014E5FA2
:101440005F4F8417950750F0420F531F50932002AF
:1014500040931F02F9016193719302C0E0E0F0E054
:10146000CF01DF91CF911F910F910895CF93DF931B
:101470009C01009709F48FC0EC0122971B821A820D
:1014800060912102709122026115710581F48881B9
:101490009981820F931F20911F02309120022817FB
:1014A000390739F5D0932002C0931F0274C0DB01C5
:1014B00040E050E0AC17BD0708F1BB83AA83FE01F2
:1014C00021913191E20FF31FAE17BF0779F48D918F
:1014D0009C911197280F391F2E5F3F4F3983288326
:1014E00012968D919C9113979B838A834115510588
:1014F00071F4D0932202C09321024DC012968D91B7
:101500009C911397AD01009711F0DC01D3CFDA0164
:101510001396DC93CE931297FA0121913191E20F49
:10152000F31FCE17DF0769F488819981280F391FCF
:101530002E5F3F4FFA01318320838A819B81938301
:101540008283E0E0F0E0DB0112968D919C9113978D
:10155000009719F0BC01FD01F6CFAB014E5F5F4F64
:10156000DB018D919C91840F951F20911F0230917A
:1015700020022817390779F4309729F410922202B3
:101580001092210202C013821282425050405093A6
:10159000200240931F02DF91CF9108956F927F92B6
:1015A0008F929F92AF92BF92CF92DF92EF92FF9273
:1015B0000F931F93CF93DF938C01009729F4CB01F6
:1015C0000E9499098C01BBC08EEFE82E8FEFF82E98
:1015D000E00EF11E4801860E971E8E149F0408F43B
:1015E000ACC0D7014D915C91119746175707B8F0E1
:1015F0004530510508F4A3C0CA0104978617970720
:1016000008F49DC042505040461B570BF4014193D3
:1016100051936D937C93CF010E94360A90C05B0179
:10162000A41AB50A3801640E751EA0912102B0916A
:101630002202E0E0F0E0CC24DD2447C0A615B70587
:10164000A9F5CD91DC911197CE0102968A159B05E3
:1016500068F1CE018A199B09029612962C91129775
:1016600013963C91059758F0F40122833383CA19ED
:10167000DB09D183C083D7016D937C9309C04E5F92
:101680005F4F4C0F5D1FF70151834083C901FC017F
:10169000C114D10431F0D6011396FC93EE93129746
:1016A0004EC0F0932202E093210249C08D919C919B
:1016B0001197E817F90708F4FC016D0112968C9157
:1016C000129713969C919C01D901109709F0B6CFFF
:1016D00080911F029091200286159705E9F4E61784
:1016E000F707D0F420912C0130912D0121153105FF
:1016F00041F42DB73EB78091280190912901281B14
:10170000390B82169306C8F49092200280921F0231
:10171000F7017183608313C0CB010E949909EC012A
:10172000009759F0D7014D915C91B8010E948E004D
:10173000C8010E94360A8E0102C000E010E0C80114
:10174000DF91CF911F910F91FF90EF90DF90CF909D
:10175000BF90AF909F908F907F906F900895629F01
:10176000D001739FF001829FE00DF11D649FE00D99
:10177000F11D929FF00D839FF00D749FF00D659FFA
:10178000F00D9927729FB00DE11DF91F639FB00DF9
:10179000E11DF91FBD01CF011124089597FB092E0A
:1017A00007260AD077FD04D02ED006D000201AF4E8
:1017B000709561957F4F0895F6F7909581959F4FAD
:1017C0000895A1E21A2EAA1BBB1BFD010DC0AA1F82
:1017D000BB1FEE1FFF1FA217B307E407F50720F09A
:1017E000A21BB30BE40BF50B661F771F881F991F15
:1017F0001A9469F760957095809590959B01AC015E
:10180000BD01CF010895AA1BBB1B51E107C0AA1F50
:10181000BB1FA617B70710F0A61BB70B881F991F91
:101820005A95A9F780959095BC01CD010895EE0FCA
:10183000FF1F0590F491E02D099410E0C6ECD0E074
:1018400004C0FE010E94190C2296C83CD107C9F7BA
:04185000F894FFCF3A
:101854000054454D50313A0057656C636F6D6520F7
:10186400746F2044617461005472616E736D6973A6
:1018740073696F6E000A00018000230200000000FB
:1018840000006F02630700004000140054000000D1
:0E1894000000BE066307540685066506AE0614
:00000001FF
